:020000040800F2
:1000000000000520F90200080103000805030008AC
:10001000790300087D030008C50300080000000004
:10002000000000000000000000000000F91C0008B3
:1000300011040008000000005D1D0008C11D00083B
:1000400029040008290400082904000829040008DC
:1000500029040008290400082904000829040008CC
:1000600029040008290400082904000829040008BC
:1000700029040008290400082904000829040008AC
:10008000290400082904000829040008290400089C
:10009000290400082904000829040008290400088C
:1000A000290400082904000829040008290400087C
:1000B000290400082904000829040008290400086C
:1000C000290400082904000829040008290400085C
:1000D000290400082904000829040008290400084C
:1000E000290400082904000829040008290400083C
:1000F000290400082904000829040008290400082C
:10010000290400082904000829040008290400081B
:10011000290400082904000829040008290400080B
:1001200029040008290400082904000829040008FB
:1001300029040008290400082904000829040008EB
:1001400029040008290400082904000829040008DB
:1001500029040008290400082904000829040008CB
:1001600029040008290400082904000829040008BB
:1001700029040008290400082904000800000000E0
:10018000290400082904000829040008290400089B
:10019000290400082904000829040008290400088B
:1001A000290400082904000829040008290400087B
:1001B000290400082904000829040008290400086B
:1001C000290400082904000800B583B001F070F983
:1001D000384B394A1360394A136039490CE00A68D0
:1001E0004B6801F10C04886803E01168196004335E
:1001F00004329842F9D82146324B9942EFD32E4B24
:100200001A68314B9A4204D12C4B1A682F4B9A42F0
:1002100000D0FEE7274B2E4A13602E4A13602E4B68
:100220000AE0194651F8082B5B6802E000201060D4
:1002300004329A42FAD30B46284A9342F1D3244B14
:100240001B6813B9234B1B6803B1FEE701F0B0FB39
:10025000694601A801F0BCF8214C224B1C1BA410DC
:10026000002504E01E4B53F8253098470135AC4279
:10027000F8DC1D4C1D4B1C1BA410002504E01A4B80
:1002800053F8253098470135AC42F8DC00990198C5
:1002900001F0FCFB0546164C164B1C1BA41004E099
:1002A000013C134B53F824309847002CF8DC2846C7
:1002B00001F060F8BABADECA000000207800002021
:1002C0002C040008440400087856341232547698FE
:1002D00080000020842E01204404000854040008FB
:1002E000540400085404000854040008540400088E
:1002F000540400085404000808B5FFF765FF00BF68
:1003000000BEFEE71EF0040F0CBFEFF30880EFF312
:1003100009807146414A10472DE9F04182B00446F8
:100320008846134B5E6B9F6B9D6A1B6B13F0020F2D
:100330000DD00F4BDB6A002B09DA4BF6AB6101F0F5
:1003400041F920B14FF00042094BDA620CE0094854
:1003500001F050F8CDF800803B4632462946204651
:1003600001F0B8F800BEFEE702B0BDE8F08100BFC2
:1003700000ED00E08831000800BEFEE71EF0040F2B
:100380000CBFEFF30880EFF309807146244A104751
:100390002DE9F04182B004468846084B5E6B9F6BA6
:1003A0009D6A074801F026F8CDF800803B463246AA
:1003B0002946204601F08EF800BEFEE700ED00E081
:1003C000983100081EF0040F0CBFEFF30880EFF324
:1003D00009807146134A10472DE9F04182B0044666
:1003E0008846084B5E6B9F6B9D6A074801F002F8D8
:1003F000CDF800803B4632462946204601F06AF897
:1004000000BEFEE700ED00E0A431000800BEFEE7FC
:1004100000BEFEE700BEFEE77047000019030008BB
:0C04200091030008D903000800BEFEE7AD
:10042C001C320008000000207C0000201C32000858
:10043C00000000100000001080000020882E012019
:08044C00000000100000001088
:1004600010B5044600F06CFF064BA3FB003080097A
:1004700000F096F8002221464FF0FF3000F050F8CF
:10048000002010BDD34D621008B5074A136843F42D
:1004900000731360032000F025F80F20FFF7E0FF42
:1004A00001F008FB002008BD003C0240024A13682E
:1004B00001331360704700BF84000020014B1868AF
:1004C000704700BF8400002010B582B00190FFF794
:1004D000F5FF0446FFF7F2FF001B019B9842F9D39A
:1004E00002B010BD10B50446C31E042B03D9A421CD
:1004F000084800F075FF084AD36823F4E0631B0442
:100500001B0C240204F4E0641C43044B2343D3601B
:1005100010BD00BF1C2F000800ED00E00000FA0530
:1005200070B504460E4615460F2A03D9BC2118485B
:1005300000F056FF0F2E03D9BD21154800F050FFE3
:10054000144BDA68C2F30222C2F10701042928BF62
:100550000421131D062B01D9033A00E000220123D8
:1005600003FA01F101393140914003FA02F2013AF4
:100570002A400A43002C06DA04F00F041201D2B21A
:10058000054B1A5570BD1201D2B2044B1A5570BDFD
:100590001C2F000800ED00E014ED00E000E400E096
:1005A0000138B0F1807F0AD2064B5860F021064A2C
:1005B00082F823100020986007221A6070470120FB
:1005C000704700BF10E000E000ED00E010B5044609
:1005D000042818BF002804D040F2B311084800F0E6
:1005E000FFFE042C05D1074A136843F0040313608F
:1005F00010BD044A136823F00403136010BD00BF4C
:100600001C2F000810E000E02DE9F04782B0804682
:100610000F46B24BB24A904218BF98422BD003F516
:100620000063C31A18BF012302F50062904222D072
:100630000BB3AC4BC31A18BF012302F50062904202
:1006400019D0C3B1A84BC31A18BF012302F5006229
:10065000904210D07BB1A54BC31A18BF012302F5FD
:100660000062904207D033B1A14B984203D0C3211E
:10067000A04800F0B5FE3B881BB9C4219D4800F09E
:10068000AFFE7B68112B18BF012B20D9022B1ED087
:10069000122B1CD0984A934219D002F58012934233
:1006A00015D002F58012934211D0A2F5F8129342B0
:1006B0000DD002F58012934209D002F580129342C8
:1006C00005D0032B03D0C5218A4800F089FEBB6802
:1006D000022B03D9C621874800F082FE0025F7E0EF
:1006E0000124AC403E682640B44240F0F0807B6874
:1006F000122B18BF022B1CD13B690F2B18BF0C2BE0
:1007000007D90D2B05D00E2B03D0D721794800F047
:1007100067FEEA08083258F8220005F0070399003E
:100720000F238B4020EA03003B698B40034348F8CA
:100730002230D8F800304FEA450A4FF0030909FA91
:100740000AF96FEA090903EA09027B6803F0030367
:1007500003FA0AF31343C8F800307B685A1E112BC2
:1007600018BF012A01D9122B1BD1FB68032B03D917
:10077000EB21604800F034FED8F8083009EA0302A3
:10078000FB6803FA0AF31343C8F80830D8F80430BA
:1007900023EA04047B68C3F30013AB401C43C8F88E
:1007A0000440D8F80C3009EA0309BB6803FA0AF3DD
:1007B00049EA0303C8F80C307B6813F0805F00F04F
:1007C00086804E4B5A6C42F480425A645B6C03F450
:1007D00080430193019BA9088A1C494B53F82200CE
:1007E00005F003039B000F229A4020EA02003C4AD6
:1007F000904525D002F58062904523D002F58062B5
:10080000904521D002F5806290451FD002F58062AC
:1008100090451DD002F5806290451BD002F58062A4
:10082000904519D002F58062904517D002F580629C
:10083000904515D002F58062904513D1092212E04F
:10084000002210E001220EE002220CE003220AE066
:10085000042208E0052206E0062204E0072202E066
:10086000082200E00A2202FA03F303430231244A79
:1008700042F82130234B1A68F34302EA03017868F7
:1008800010F4803F01D046EA02011E4A116052680E
:1008900003EA0201786810F4003F01D046EA020141
:1008A000184A5160926803EA0201786810F4801FC8
:1008B00001D046EA0201134A9160D2681340796878
:1008C00011F4001F01D046EA02030E4AD36001353D
:1008D0000F2D7FF605AF02B0BDE8F087000402409F
:1008E0000000024000140240001C024000240240AC
:1008F00000280240502F000800001110003802406C
:1009000000380140003C014070B5064615460C46D3
:1009100021B940F2AD11084800F062FD012D04D963
:100920004FF4D771044800F05BFD0DB1B46170BDA8
:100930002404B46170BD00BF502F000838B50446D0
:100940000D4621B940F2C311034800F049FD616929
:100950006940616138BD00BF502F000810B582B0FA
:100960001C4B1A6C42F080521A641B6C03F08053CB
:100970000193019B184A136843F480331360FFF717
:100980009DFD044605E0FFF799FD001BB0F57A7F59
:100990001AD8114B5B6813F4803FF4D00E4A1368E9
:1009A00043F400331360FFF789FD044605E0FFF7C9
:1009B00085FD001BB0F57A7F08D8074B5B6813F400
:1009C000003FF4D0002002E0032000E0032002B04A
:1009D00010BD00BF003802400070004030B583B049
:1009E000044603680F2B04D94FF480719D4800F032
:1009F000F7FC236813F0010F00F094806368002B6C
:100A000018BFB3F5803F07D0B3F5A02F04D04FF443
:100A10008371944800F0E4FC934B9B6803F00C0353
:100A2000042B0AD0904B9B6803F00C03082B0DD1CC
:100A30008D4B5B6813F4800F08D08B4B1B6813F44D
:100A4000003F6FD06368002B6CD15BE2864B1A6865
:100A500022F480321A601A6822F480221A601A681E
:100A600022F480321A60FFF729FD054607E0FFF700
:100A700025FD401B41F28833984200F245827A4BB3
:100A80001B6813F4003FF2D1774A136823F48033D4
:100A900013606368B3F5803F09D11346126822F4EE
:100AA00080221A601A6842F480321A6015E0B3F5A9
:100AB000A02F09D16C4B1A6842F480221A601A6880
:100AC00042F480321A6008E0674B1A6822F48022F0
:100AD0001A601A6822F480321A6063688BB1FFF7DB
:100AE000EDFC054607E0FFF7E9FC401B41F28833C7
:100AF000984200F20B825C4B1B6813F4003FF2D06B
:100B000010E0FFF7DBFC054607E0FFF7D7FC401BD2
:100B100041F28833984200F2FB81534B1B6813F477
:100B2000003FF2D1236813F0020F6ED0E368012B6F
:100B300004D940F247114B4800F052FC23691F2BA7
:100B400004D94FF4A471474800F04AFC464B9B6817
:100B500013F00C0F0AD0444B9B6803F00C03082BD6
:100B60001BD1414B5B6813F4800F16D13E4B1B68C1
:100B700013F0020F03D0E368012B40F0CB813A4819
:100B8000036823F0F8012369F82292FAA2F2B2FA7C
:100B900082F293400B43036037E0E3680BB3324AC1
:100BA000136843F001031360FFF788FC054605E076
:100BB000FFF784FC401B642800F2AE812A4B1B68BF
:100BC00013F0020FF4D02848036823F0F8012369DA
:100BD000F82292FAA2F2B2FA82F293400B43036037
:100BE00013E0214A136823F001031360FFF766FC4A
:100BF000054605E0FFF762FC401B642800F28E8189
:100C0000194B1B6813F0020FF4D1236813F0080F7F
:100C100037D06369012B04D94FF4C471114800F037
:100C2000DFFB6369A3B1104A536F43F001035367BD
:100C3000FFF744FC054605E0FFF740FC401B642835
:100C400000F26E81084B5B6F13F0020FF4D018E0D6
:100C5000054A536F23F001035367FFF72FFC054646
:100C60000AE000BF902F000800380240FFF726FC82
:100C7000401B642800F25681B54B5B6F13F0020FE6
:100C8000F4D1236813F0040F00F09280A368052BC1
:100C900018BF012B04D94FF4D971AE4800F0A0FB66
:100CA000AB4B1A6C42F080521A641B6C03F08053F9
:100CB0000193019BA84A136843F480731360FFF704
:100CC000FDFB054605E0FFF7F9FB401B642800F239
:100CD0002B81A14B1B6813F4807FF4D09C4B1A6FBF
:100CE00022F001021A671A6F22F004021A671A6FC3
:100CF00022F001021A67FFF7E1FB054607E0FFF764
:100D0000DDFB401B41F28833984200F20F81904B8B
:100D10001B6F13F0020FF2D18D4A136F23F0010302
:100D20001367A368012B09D11346126F22F0040246
:100D30001A671A6F42F001021A6714E0052B09D1F5
:100D4000834B1A6F42F004021A671A6F42F00102D5
:100D50001A6708E07E4B1A6F22F004021A671A6FB6
:100D600022F001021A67A3688BB1FFF7A7FB0546C3
:100D700007E0FFF7A3FB401B41F28833984200F2E3
:100D8000D780734B1B6F13F0020FF2D010E0FFF708
:100D900095FB054607E0FFF791FB401B41F28833C6
:100DA000984200F2C7806A4B1B6F13F0020FF2D11A
:100DB000A369022B04D94FF4FB71664800F010FBC5
:100DC000A369002B00F0B880614A926802F00C021F
:100DD000082A00F0B380022B7FD1E369002B18BFF3
:100DE000B3F5800F04D040F2FF115A4800F0F8FA32
:100DF000236A023B3D2B04D94FF40071554800F0A3
:100E0000EFFA636AC03BF02B04D940F2012151484C
:100E100000F0E6FAA36A022B18BF042B08D0062BB9
:100E200006D0082B04D040F202214A4800F0D8FA3C
:100E3000E36A023B0D2B04D940F20321454800F040
:100E4000CFFA434A136823F080731360FFF736FB31
:100E5000054604E0FFF732FB401B642870D83C4B8A
:100E60001B6813F0007FF5D1216A636A47F6C072F0
:100E700092FAA2F2B2FA82F293401943A36A5B0893
:100E80005A1E4FF4403393FAA3F3B3FA83F302FAF2
:100E900003F30B43E2691343E26A4FF0706191FA86
:100EA000A1F1B1FA81F18A40134343F00053284A7B
:100EB0005360136843F080731360FFF7FFFA044632
:100EC00004E0FFF7FBFA001B64283BD8204B1B68AB
:100ED00013F0007FF5D0002037E01D4A136823F09F
:100EE00080731360FFF7EAFA044604E0FFF7E6FABE
:100EF000001B642828D8164B1B6813F0007FF5D11F
:100F0000002022E0012020E003201EE003201CE05E
:100F100003201AE0012018E0032016E0032014E06B
:100F2000032012E0032010E003200EE003200CE079
:100F300003200AE0032008E0002006E0012004E08E
:100F4000032002E0032000E0032003B030BD00BF17
:100F500000380240902F00080070004070B5044631
:100F60000D460368013B0E2B04D940F262218948EB
:100F700000F036FA0F2D04D940F26321854800F0C5
:100F80002FFA854B1B6803F00F039D4240F28F80C0
:100F9000814A136823F00F032B431360136803F097
:100FA0000F039D4240F05781236813F0020F1ED0BB
:100FB000A368002B18BF802B12D0902B10D0A02B31
:100FC0000ED0B02B0CD0C02B0AD0D02B08D0E02BE9
:100FD00006D0F02B04D040F279216E4800F000FAE0
:100FE0006E498B6823F0F002A36813438B6023687B
:100FF00013F0010F00F0EB806368022B04D94FF46B
:101000002071644800F0ECF96268012A05D1634B55
:101010001B6813F4003F0ED11FE1022A05D15F4B7C
:101020001B6813F0007F06D119E15C4B1B6813F0BD
:10103000020F00F0168159498B6823F00303134314
:101040008B60FFF73BFA05466368012B0FD107E081
:10105000FFF734FA401B41F28833984200F20381D3
:101060004E4B9B6803F00C03042BF1D1AFE0022B35
:1010700017D107E0FFF722FA401B41F2883398426C
:1010800000F2F380454B9B6803F00C03082BF1D171
:101090009DE0FFF713FA401B41F28833984200F2BB
:1010A000E6803E4B9B6813F00C0FF2D18FE0236873
:1010B00013F0020F1ED0A368002B18BF802B12D094
:1010C000902B10D0A02B0ED0B02B0CD0C02B0AD060
:1010D000D02B08D0E02B06D0F02B04D04FF4327187
:1010E0002C4800F07DF92D498B6823F0F002A368AD
:1010F00013438B60236813F0010F5DD06368022BEC
:1011000004D940F2CF21234800F06AF96268012A2D
:1011100005D1224B1B6813F4003F0ED1A9E0022A2F
:1011200005D11E4B1B6813F0007F06D1A3E01B4BBB
:101130001B6813F0020F00F0A08018498B6823F0A1
:10114000030313438B60FFF7B9F906466368012B6D
:101150000FD107E0FFF7B2F9801B41F288339842C4
:1011600000F28D800D4B9B6803F00C03042BF1D132
:1011700022E0022B1BD106E0FFF7A0F9801B41F211
:10118000883398427DD8054B9B6803F00C03082BED
:10119000F2D111E0902F0008003C024000380240DC
:1011A000FFF78CF9801B41F2883398426BD8384B9B
:1011B0009B6813F00C0FF3D1364A136823F00F032A
:1011C0002B431360136803F00F039D425DD1236826
:1011D00013F0040F1AD0E368002B18BFB3F5805F3B
:1011E0000DD0B3F5A05F0AD0B3F5C05F07D0B3F55B
:1011F000E05F04D040F21E31274800F0F1F82449A6
:101200008B6823F4E052E36813438B60236813F088
:10121000080F1BD02369002B18BFB3F5805F0DD0DA
:10122000B3F5A05F0AD0B3F5C05F07D0B3F5E05FB8
:1012300004D040F22531184800F0D2F8144A9368DF
:1012400023F46043216943EAC10393600F20FFF751
:1012500007F9002070BD012070BD012070BD012084
:1012600070BD012070BD032070BD032070BD032040
:1012700070BD012070BD012070BD012070BD032034
:1012800070BD032070BD032070BD012070BD00BF84
:1012900000380240003C0240902F0008254B9B681C
:1012A00003F00C03042B3FD0082B01D022487047D9
:1012B00010B4204B586800F03F005B6813F4800FB7
:1012C00010D01E4BB3FBF0F01A4B5A6847F6C071B2
:1012D0000A4091FAA1F3B3FA83F322FA03F303FB72
:1012E00000F310E0144BB3FBF0F0124B5A6847F6D2
:1012F000C07402EA040194FAA4F2B2FA82F221FA6A
:1013000002F202FB00F30B4A506800F440324FF443
:10131000403090FAA0F0B0FA80F022FA00F00130EC
:101320004000B3FBF0F001E0044870475DF8044B67
:10133000704700BF003802400024F40040787D016F
:1013400008B5FFF7ABFF084B9B6803F0F002F023F2
:1013500093FAA3F3B3FA83F322FA03F3034AD35CB9
:10136000D840034B186008BD00380240802F0008A9
:101370000C000020FEE700BF08B5034800F052F85B
:101380000120FFF7F7FF00BFC02F000808B50D4B85
:101390001B6813B90C4A0B4B1A600A4B1A68C31C22
:1013A00023F00303134409498B4206D901F028F9BD
:1013B0000C2303604FF0FF3008BD02490B6010465C
:1013C00008BD00BF88000020882E012000FC0420FA
:1013D00001230360014B0B60704700BF0400002035
:1013E00008B50A460146024800F004F8FFF7C4FFBA
:1013F000143000080FB400B583B004AB53F8042BCD
:1014000001938021064801F047F9002803DD0146D9
:10141000034800F049F803B05DF804EB04B07047EE
:101420009000002010B5044601F003F90146204663
:1014300000F03AF80121024800F036F810BD00BF74
:10144000043100082DE9F04385B004460F46435CA3
:1014500013BB042528462146ABBE04461FE0354693
:10146000102E28BF1025002306E014F8011B04AA43
:101470001A4402F8101C0133AB42F6D304AA1344F9
:10148000002203F8102CE9464FF004084046494674
:10149000ABBE8046761B00E00E46002EDFD13846FC
:1014A00005B0BDE8F08300BF08B5FFF7CBFF08BD6E
:1014B00008B500F06DF9054B054A9A60D3F888200D
:1014C00042F47002C3F8882008BD00BF00ED00E0C0
:1014D00000000008F8B504460D4617461E4626488B
:1014E000FFF788FF21682548FFF784FF61682448DB
:1014F000FFF780FFA1682348FFF77CFFE1682248DF
:10150000FFF778FF21692148FFF774FF61692048E0
:10151000FFF770FFA1691F48FFF76CFFE1691E48E4
:10152000FFF768FF1D48FFF765FF29461C48FFF7D6
:1015300061FF1C4CE16A1C48FFF75CFF216B1B48F4
:10154000FFF758FFE16B1A48FFF754FF15F0800FC3
:1015500003D039461748FFF74DFF15F4004F03D06D
:1015600031461548FFF746FF1448FFF743FF069939
:101570001348FFF73FFFF8BD6C3000087C300008CF
:101580008C3000089C300008AC300008BC300008EB
:10159000CC300008DC300008EC300008FC300008DB
:1015A0000831000800ED00E018310008283100087B
:1015B0003831000848310008583100086831000807
:1015C0007031000883691A888A4207D10268033A99
:1015D000012A05D80233836101207047002070473B
:1015E0000020704782B057490B6B43F0FC030B633C
:1015F000554A4FF440431362002353628020106029
:10160000906053604020D06002F580624CF2CC00C4
:1016100010624E4850624E481060906053604D48D2
:10162000D06002F580624C4810624FF0CC305062BE
:101630004A481060906053604948D06002F580626B
:1016400048481062484850624848106090605360B3
:101650004748D06002F580624FF0CC1010624548D8
:10166000506245481060906053604448D06002F575
:1016700080624348106253624FF4086010609060CB
:1016800053604FF48863D3608B6B43F001038B632B
:101690003C4B41F654121A603B4A9A6011221A617F
:1016A0009B6903F020034FF6FF7204E0354B9B6902
:1016B00003F020030A4613B1511E002AF6D100227E
:1016C000019202E0019A01320192019AB2F57A7F09
:1016D000F8D312212B4A11614FF6FF7204E0294B17
:1016E0009B6903F020030A4613B1511E002AF6D16C
:1016F000F321244A11614FF6FF7204E0214B9B69EC
:1017000003F020030A4613B1511E002AF6D11F49E7
:101710001C4A11614FF6FF7204E01A4B9B6903F0FB
:1017200020030A4613B1511E002AF6D1154B596900
:1017300040F618220A435A611A6822F400721A60AD
:1017400002B070470038024000080240CC0C00CCC8
:101750008A002AA045001550CC0000C00A80AAAA21
:1017600005405555CCCCCC0000C0CCCCAA0A80AAF0
:10177000550540550C0000C00A0A028005050140CD
:1017800000C0C000400100A05153110114400400EA
:1017900010B50F4CD4F8883043F47003C4F8883087
:1017A0000C4B1A6842F001021A6000219960186817
:1017B000094A02401A60094A5A601A6822F48022D3
:1017C0001A60D960FFF70EFF4FF00063A36010BDF1
:1017D00000ED00E000380240FFFFF6FE103000246C
:1017E000224B9B6803F00C03042B07D0082B09D075
:1017F000002B2DD11E4A1F4B1A602CE01E4A1D4B98
:101800001A6028E0194B5A685B6803F03F0312F432
:10181000800F09D0184AB2FBF3F2144B5B68C3F394
:10182000881303FB02F208E0114AB2FBF3F30F4AFC
:101830005168C1F3881101FB03F20C4B5B68C3F3E1
:10184000014301335B00B2FBF3F30A4A136002E089
:10185000074A084B1A60054B9B68C3F30313074AFA
:10186000D15C044A1368CB401360704700380240D3
:101870000024F4000C00002040787D01B431000801
:1018800030B587B00E4B1A6B42F480721A631B6B33
:1018900003F480730093009B0225019501230293BA
:1018A000039303230493074C01A92046FEF7ACFEE3
:1018B000002229462046FFF727F807B030BD00BFB9
:1018C000003802400020024008B5002303E00E4A21
:1018D000D3540133DBB2632BF9D900231A4607E056
:1018E0000949C95C8B4201D00132D2B20133DBB26B
:1018F000632BF5D93AB102210448FFF71FF86420A1
:10190000FEF7E2FDF7E708BD000000C0002002403E
:1019100010B594B0234B1A6C42F080521A641B6CC1
:1019200003F080530193019B1F4B1A6842F440421D
:101930001A601B6803F440430293029B012308933F
:101940004FF4803309934FF480030F9319231093BE
:101950004FF4C873119302241294082313930E9426
:1019600008A8FFF73BF8FEF7F9FF0F230393049451
:10197000002305934FF4A05306934FF4805307932D
:10198000062103A8FFF7EAFAFFF7DAFC074BA3FBEF
:1019900000308009FEF704FE0420FEF717FE14B0A5
:1019A00010BD00BF0038024000700040D34D6210EF
:1019B00010B5BFF34F8FBFF36F8F1F4B0021C3F8DC
:1019C00050125A6942F400325A61BFF34F8FBFF38D
:1019D0006F8FC3F88410BFF34F8FD3F88040C4F3E8
:1019E0004E3000E01846C4F3C90200E01A4643F640
:1019F000E07303EA401343EA82730F49C1F860328F
:101A0000531E002AF2D1431E0028EBD1BFF34F8FA3
:101A10004B6943F480334B61BFF34F8FBFF36F8F3C
:101A2000FEF732FDFFF72CFFFFF74EFFFFF770FFC9
:101A3000FFF7D6FE10BD00BF00ED00E008B50221A3
:101A40000348FEF77BFF4FF47A7000F00FFDF6E7D6
:101A5000002002400449D1E90023013243F1000390
:101A6000C1E90023704700BF100100200449D1E9FB
:101A70000023013243F10003C1E90023704700BF96
:101A800018010020704700BF704700BF00B585B047
:101A900000230393029301930122009260220349E1
:101AA000034800F029FB00F0A7FBFEE7C431000863
:101AB0003D1A0008704700BF124A12F0070F07D006
:101AC000D11D21F00701C1F5963313440A4601E008
:101AD0004FF496330C480260002141601344083BE8
:101AE00023F007030948036059601960991A51608F
:101AF0001360074B1960074B19604FF00042064B0B
:101B00001A607047300100202801002024010020C5
:101B1000342D012020010020302D0120134A00E047
:101B20001A4613688342FBD310B451685418A0427C
:101B300003D1406801445160104641684418A342F3
:101B40000CD10B4C2468A34206D05B681944416059
:101B500013681B68036002E0046000E003609042C9
:101B600000D010605DF8044B704700BF28010020D2
:101B70002401002070B5054600F070FB294B1B685E
:101B80000BB9FFF799FF284B1B681D423BD135B1BC
:101B9000083515F0070F02D025F007050835002D90
:101BA00033D0224B1B689D4231D8214A146801E092
:101BB00022461C4663689D4202D92368002BF7D158
:101BC000184B1B689C4224D01668083623681360A3
:101BD00063685B1B102B04D9601943606560FFF7D5
:101BE0009DFF626811490B689B1A0B6011490968D7
:101BF0008B4201D20F490B600B4B1B681A4362608A
:101C00000023236006E0002604E0002602E0002610
:101C100000E0002600F0B8FB0EB9FFF733FF3046B6
:101C200070BD00BF24010020302D012020010020C4
:101C300028010020342D0120F8B138B50346A0F169
:101C4000080550F8042C0D4909680A4214D050F8D0
:101C5000080C88B91C4622EA010243F8042C00F063
:101C6000FDFA54F8043C064A11680B4413602846F8
:101C7000FFF754FF00F088FB38BD7047302D01207E
:101C8000200100204FF0500372B683F31188BFF398
:101C90006F8FBFF34F8F62B6FEE700BF0648006844
:101CA000006880F3088862B661B6BFF34F8FBFF358
:101CB0006F8F00DF00BF000008ED00E0DFF80C00D0
:101CC000016841F4700101607047000088ED00E098
:101CD0004FF0807340F8043C40F8081C054B40F876
:101CE0000C3C40F8202C6FF0020340F8243C4438B0
:101CF000704700BF851C0008064B19680868B0E8EB
:101D0000F04F80F30988BFF36F8F4FF0000080F32E
:101D1000118870470C2E01204FF0500372B683F3E8
:101D20001188BFF36F8FBFF34F8F62B6044A1368F9
:101D300001331360012B01D1024B1B68704700BFB8
:101D40001000002004ED00E0034A1368013B13601B
:101D50000BB983F31188704710000020EFF309805E
:101D6000BFF36F8F154B1A681EF0100F08BF20EDE0
:101D7000108A20E9F04F10604DF8043D4FF05000FC
:101D800072B680F31188BFF34F8FBFF36F8F62B6C7
:101D900000F0E2FB4FF0000080F3118808BC1968E6
:101DA0000868B0E8F04F1EF0100F08BFB0EC108AC2
:101DB00080F30988BFF36F8F704700BF0C2E01209E
:101DC00008B5EFF311834FF0500272B682F3118819
:101DD000BFF36F8FBFF34F8F62B600F047FA18B1B1
:101DE0004FF08052034B1A60FEF760FB002383F331
:101DF000118808BD04ED00E0064B1B68064AA2FBF3
:101E000003239B09013B054A13600722044B1A6018
:101E1000704700BF0C000020D34D621014E000E0BA
:101E200010E000E000B583B0204B1A78D2B20192E6
:101E3000FF221A701B78DBB28DF803309DF8033057
:101E400007221B4B1A6009E0194A1368013B136013
:101E50009DF803305B00DBB28DF803309DF8033052
:101E600013F0800FF0D1124A13681B0203F4E063F1
:101E70001360019BDBB20D4A13700E4B1A6842F4DB
:101E800070021A601A6842F070421A60FFF7B4FFDD
:101E90000022094B1A60FFF711FF084A136843F04C
:101EA00040431360FFF7FAFEFFF7ECFE00E400E0AA
:101EB000382D012020ED00E01000002034EF00E07C
:101EC00000F1080343604FF0FF328260C36003619A
:101ED00000230360704700BF00230361704700BF09
:101EE00043684B609A688A609A685160996008619B
:101EF000036801330360704730B40D68B5F1FF3FEC
:101F000001D1026907E000F1080200E01A465368B7
:101F10001C68A542FAD253684B6099608A60516090
:101F2000086103680133036030BC7047036942688D
:101F3000816891608268416851605A68904201D11D
:101F400082685A6000220261186801381860704780
:101F50000A4B1B681B680BB9012300E0002323B167
:101F60004FF0FF32064B1A607047044B1B68DB686A
:101F7000DB685A68024B1A60704700BF3C2D012095
:101F80002C2E012010B50446006BFFF755FE2046AD
:101F9000FFF752FE10BD00BF70B506460C4619B9DA
:101FA0008000FFF7E7FD044654B17020FFF7E2FD23
:101FB000054608B1046304E02046FFF73DFE00E05B
:101FC000002525B1B200A521286B00F02AFB284688
:101FD00070BD00BF70B504461646002306E0C85C1D
:101FE000E21882F83400CA5C12B101330F2BF6D923
:101FF000002384F84330072E00D90726E662E66402
:1020000000252565201DFFF767FF04F11800FFF785
:1020100063FF2461C6F10806A66164622B4606E0F0
:1020200003F1140204EB8202002151600133042BFE
:10203000F6D90023A36684F86C3070BD38B500244F
:1020400007E004EB840293000E481844FFF738FFC2
:102050000134072CF5D90C4D2846FFF731FF0B4C06
:102060002046FFF72DFF0A48FFF72AFF0948FFF730
:1020700027FF0948FFF724FF084B1D60084B1C6031
:1020800038BD00BF642D0120342E0120482E0120D0
:10209000102E0120482D01205C2E01203C2D012016
:1020A0005C2D012010B50F4B1B6858600E4B1B6850
:1020B000984207D20D4B18680A4B19680431FFF794
:1020C0001BFF10BD04460A4B1868064B1968043103
:1020D000FFF712FF074B1B689C4201D2054B1C60A7
:1020E00010BD00BF0C2E0120282E01205C2D0120E8
:1020F0003C2D01202C2E01202DE9F04782B0804696
:102100008A46164699460B9F0C991046FFF744FFE6
:1021100000284BD00446036B6FF04045354403EB79
:10212000850525F0070500960D9B0A9A5146FFF795
:1021300051FF4A4641462846FFF7CAFD206007B1D5
:102140003C60FFF7E9FD254A136801331360244B17
:102150001B683BB9224B1C601368012B0DD1FFF7A4
:102160006DFF0AE01F4B1B683BB91D4B1B68DB6A08
:102170000A9A9A4201D31A4B1C601B4A1368013316
:1021800013606364E36A012505FA03F017490A68DE
:1021900002430A6003EB83039A00211D1448104494
:1021A000FFF79EFEFFF7D0FD284601E04FF0FF301D
:1021B000012810D10B4B1B686BB1094B1B68DB6A04
:1021C0000A9A9A4207D94FF080520A4B1A60BFF31D
:1021D0004F8FBFF36F8F02B0BDE8F087082E01204C
:1021E0000C2E0120402D0120302E0120702E0120C8
:1021F000642D012004ED00E000B585B000230393B9
:1022000002930193009360220F491048FFF774FF77
:10221000012815D14FF0500372B683F31188BFF334
:102220006F8FBFF34F8F62B64FF0FF32084B1A60CB
:102230000122084B1A600022074B1A60FFF7F2FDDB
:1022400005B05DF804FB00BFCC3100082D25000867
:102250002C2E0120402D0120282E0120024A136837
:1022600001331360704700BF042E0120F8B53B4BCB
:102270001B68002B64D13A4B1A6801321A601E6841
:1022800066B9384B1A681968374A106818601160C7
:10229000364A136801331360FFF75AFE344B1B684C
:1022A0009E4203D200273AE0012700E000272D4B91
:1022B0001B681B680BB9012300E0002323B14FF01A
:1022C000FF322B4B1A602AE0264B1B68DB68DC6868
:1022D00063689E4202D2264A136020E0251D2846EC
:1022E000FFF724FEA36A1BB104F11800FFF71EFEDE
:1022F000E36A012202FA03F11E4802680A430260FF
:1023000003EB83039A0029461B481044FFF7E8FDBE
:10231000E26A1A4B1B68DB6A9A42C5D2C7E7174BC1
:102320001B68DB6A03EB83039A00134B9B58012B5A
:1023300000D90127124B1B684BB9FFF78BFB06E056
:102340000F4A136801331360FFF784FB00270D4B1E
:102350001B6803B101273846F8BD00BF042E0120D9
:10236000282E01203C2D01205C2D0120242E01204F
:102370002C2E0120702E0120642D01200C2E012016
:10238000602D0120742E012038B52F4C2368FFF7F3
:10239000C3FC2368013B23602368002B4CD12B4BEB
:1023A0001B682BBB00244AE0294BDB68DC6804F186
:1023B0001800FFF7BBFD251D2846FFF7B7FDE36AB0
:1023C000012202FA03F1234802680A43026003EB88
:1023D00083039A00294620481044FFF781FDE26AF2
:1023E0001E4B1B68DB6A9A4202D301221C4B1A6007
:1023F000174B1B68002BD7D11A4B1B6853B90DE044
:10240000FFF734FF10B10122154B1A60154A13680B
:10241000013B1360134B1B68002BF1D1104B1B6861
:10242000012B0BD14FF080520F4B1A60BFF34F8F2F
:10243000BFF36F8F012402E0002400E00024FFF7C7
:1024400083FC204638BD00BF042E0120082E012049
:10245000102E0120702E0120642D01200C2E012051
:10246000742E0120602D012004ED00E010B5F0B1C4
:102470000446144B1B68FFF7F1FE134B1B681C440A
:10248000124B18680430FFF751FD50B90F4B1B6811
:10249000DA6A012303FA02F20D490B6823EA020308
:1024A0000B602046FFF7FEFDFFF76EFF00E0002007
:1024B00038B94FF08052074B1A60BFF34F8FBFF30C
:1024C0006F8F10BD042E0120282E01200C2E01201C
:1024D000702E012004ED00E010B51BE0FFF7BEFEFA
:1024E0000F4B1C68FFF750FFA4B1FFF715FC0C4B16
:1024F000DB68DC68201DFFF719FD0A4A1368013B01
:102500001360094A1368013B1360FFF71DFC204666
:10251000FFF738FD044B1B68002BDFD110BD00BF57
:10252000482D0120082E0120442D012008B5FFF779
:10253000D3FF074B1B68012B07D94FF08052054B87
:102540001A60BFF34F8FBFF36F8FFFF78FFAEEE77D
:10255000642D012004ED00E038B5244B1B681BB14D
:102560000122234B1A6038BD0022214B1A60214BF7
:102570001B681B6B1A68B2F1A53F0BD15A68B2F108
:10258000A53F07D19A68B2F1A53F03D1DB68B3F14B
:10259000A53F05D0174B186819683431FFF774FA56
:1025A000154B1B68B3FA83F3DBB2C3F11F03134D62
:1025B0009900CA189000284442685468446019443D
:1025C0008A0008322A44944205D1606803EB8301F3
:1025D0008A002A44506003EB83039A00074B1A4495
:1025E0005368DA68034B1A6038BD00BF042E01201F
:1025F000742E01200C2E0120702E0120642D01204C
:10260000014B1868704700BF7400002010B5431ECE
:102610000A44914204D011F8014B03F8014FF8E746
:1026200010BD02440346934202D003F8011BFAE7AF
:102630007047034613F8012B002AFBD1181A013802
:10264000704730B5141E05469BB0184604DA8B233C
:102650002B604FF0FF301DE04FF40273ADF80C30EB
:1026600014BF04F1FF332346029305934FF6FF7323
:1026700000910491ADF80E3002461E9B6946284633
:1026800000F072F8431CBCBF8B232B6014B1009B7D
:1026900000221A701BB030BD07B5009313460A46DE
:1026A000014603480068FFF7CCFF03B05DF804FB68
:1026B000740000202DE9F0478E689E4282460C4649
:1026C000914698463ED88A8912F4906F3AD0256890
:1026D00009696F1A6569022305EB450595FBF3F55A
:1026E0007B1C43449D4238BF1D4653050FD52946E8
:1026F00000F080FB064698B13A462169FFF786FF55
:10270000A38923F4906343F08003A38113E02A4656
:1027100000F0C4FB064670B92169504600F024FB66
:102720000C23CAF80030A38943F04003A3814FF083
:10273000FF30BDE8F087266165613E44ED1B2660F1
:10274000A5604646464528BF46463246494620686B
:1027500000F0EEFAA3689B1BA36023681E4426606A
:102760000020BDE8F08700002DE9F04F9DB08046C5
:1027700003938B891C060D4616460DD50B695BB974
:10278000402100F037FB2860286118B90C23C8F8F5
:102790000030CDE040236B610023099320238DF8A6
:1027A0002930DFF89CB130238DF82A3037463C467B
:1027B00014F8013B1BB9B7EB060910D003E0252B39
:1027C000F9D02746F3E74B46324629464046FFF705
:1027D00071FF013000F0A780099B4B4409933B78BF
:1027E000002B00F0A08000234FF0FF3204930793EA
:1027F000059206938DF853301A930126052221780D
:102800004E4800F045FA671C049B38B14B4A801AC9
:1028100006FA00F0184304903C46EFE7D90644BF9F
:1028200020228DF853201A0744BF2B228DF8532005
:1028300022782A2A03D0079A00210A200BE0039A63
:10284000111D12680391002A10DA524243F002006F
:10285000079204900BE0274601343B78303B092B6C
:1028600003D800FB02320121F5E701B107923B7862
:102870002E2B1ED17B782A2B0AD1039B1A1D1B6895
:102880000392002BB8BF4FF0FF330237059310E0DF
:1028900000230593781C19460A24074601303A782C
:1028A000303A092A03D804FB01210123F5E703B1DB
:1028B000059103223978224800F0EAF940B140231B
:1028C000CBEB000003FA00F0049B1843049001379F
:1028D00039781C488DF8281006227E1C00F0D8F9A3
:1028E00088B1194B33B9039B073323F0070308332F
:1028F000039314E003AB00932A46144B04A940460B
:10290000AFF3008007E003AB00932A460F4B04A906
:10291000404600F093F8B0F1FF3F824603D0099B98
:102920005344099342E7AB895B0601D4099801E05F
:102930004FF0FF301DB0BDE8F08F00BFE63100085A
:10294000EC310008F031000800000000B526000856
:102950002DE9F04791461F460A698B68DDF8208013
:102960009342B8BF1346C9F8003091F84320064699
:102970000C4612B10133C9F800302368990642BFF2
:10298000D9F800300233C9F80030256815F0060583
:1029900010D104F1190A07E00123524639463046A6
:1029A000C04701301AD00135E368D9F800209B1ADE
:1029B0009D42F1DB94F843302268003318BF0123B5
:1029C00092060FD5E1185A1C302081F843002244AA
:1029D00094F8451082F84310023303E04FF0FF30C3
:1029E000BDE8F08704F1430239463046C047013064
:1029F000F4D02268D9F80050E36802F00602042AF5
:102A000008BF5D1B2269A3680CBF25EAE575002598
:102A10009342C4BF9B1AED184FF000091A344D457C
:102A200009D00123224639463046C0470130D5D06F
:102A300009F10109F3E70020BDE8F0872DE9F04333
:102A400017460A7E85B06E2A984606460C460C9BB1
:102A500001F1430E00F0AE8011D8632A22D009D8CC
:102A6000002A00F0BB80582A40F0CA8081F8452037
:102A7000834955E0642A1ED0692A1CD0C0E0732A1D
:102A800000F0B08009D86F2A2ED0702A40F0B880AC
:102A90000A6842F020020A603EE0752A24D0782AB3
:102AA0003AD0ADE01A6801F14205111D19601368B2
:102AB00084F84230A8E021681A6811F0800F02D033
:102AC000111D196008E011F0400F02F104011960B6
:102AD00002D0B2F9003000E01368002B3CDA2D225E
:102AE0005B4284F8432037E021681A6811F0800FB8
:102AF00002D0111D196007E011F0400F02F104012E
:102B0000196001D0138800E01368227E5C496F2AA7
:102B100014BF0A2208221BE078225A4984F8452073
:102B20002268186812F0800F00F104051D6003D1BF
:102B3000550601D5038800E00368D00744BF42F082
:102B4000200222601BB9226822F02002226010229B
:102B5000002084F8430001E049490A226568A56025
:102B6000002D08DB206820F0040020602BB9002D28
:102B70007DD175460CE0002B79D07546B3FBF2F0A1
:102B800002FB1033CB5C05F8013D03460028F5D16C
:102B9000082A0BD12368DA0708D5236962689A42AC
:102BA000DEBF302305F8013C05F1FF35C5EB0E0310
:102BB00023612EE008681A68496910F0800F03D07D
:102BC000101D1860136808E010F0400F02F10400B7
:102BD0001860136801D0198000E019600023236198
:102BE000754616E01A68111D1960156862680021A3
:102BF000284600F04DF808B1401B6060636804E0AF
:102C000004F1420584F8422001232361002384F863
:102C10004330CDF800803B4603AA21463046FFF7FB
:102C200097FE013002D14FF0FF3026E023692A469B
:102C300039463046C0470130F5D023689B0710D590
:102C4000002504F1190907E001234A4639463046B8
:102C5000C0470130E7D00135E368039A9B1A9D42D3
:102C6000F2DBE068039B9842B8BF184605E00B789A
:102C700084F8423004F142058AE705B0BDE8F083EC
:102C8000F7310008083200080000000000000000D2
:102C900001F0FF01102A2BDB10F0070F08D010F80D
:102CA000013B013A8B422DD010F0070F42B3F6D111
:102CB000F0B441EA012141EA014122F007047FF02A
:102CC00000070023F0E80256083C85EA010586EA81
:102CD000010685FA47F5A3FA87F586FA47F6A5FABD
:102CE00087F68EB9EED1F0BC01F0FF0102F00702C9
:102CF00032B110F8013B013A83EA010313B1F8D174
:102D00000020704701387047002D06BF3546033854
:102D1000073815F0010F07D1013015F4807F02BF8D
:102D2000013015F4C03F0130F0BC0138704700BFDE
:102D3000884210B501EB020301D8421E0BE0984215
:102D4000FBD28118D21AD34204D013F8014D01F8F6
:102D5000014DF8E710BD994204D011F8014B02F87B
:102D6000014FF8E710BD000030B500293ED051F802
:102D7000042C0B1F1E49002AB8BF9B180A680C467A
:102D800012B95A600B6030BD9A420ED919685818B2
:102D9000824204BF106852685A6004BF0918196063
:102DA000236030BD994203D80A4651680029F9D101
:102DB000146815199D420AD11B682344D01881421A
:102DC000136013D10868034413604B680DE002D907
:102DD0000C23036030BD18681C18A14204BF0C68A6
:102DE0004968596004BF00191860536030BD00BFC6
:102DF0007C2E012070B5CD1C25F0030508350C2D67
:102E000038BF0C25002D064603DA0C233360002062
:102E100070BDA942F9D81F4B1C681A462146A1B1C2
:102E20000B685B1B0ED40B2B03D90B60CC18CD5059
:102E30001EE08C420DBF63684B686360136018BF6F
:102E40000C4615E00C464968E9E7134C23681BB9AA
:102E5000304600F049F820602946304600F044F83A
:102E6000431CD2D0C41C24F00304A0420AD1256024
:102E700004F10B00231D20F00700C31A09D05A42A9
:102E8000E25070BD211A304600F02EF80130EED12C
:102E9000BBE770BD7C2E0120782E0120F8B50746D7
:102EA00015460E4621B91146BDE8F840FFF7A2BF0E
:102EB0001AB9FFF759FF2846F8BD00F025F88542FA
:102EC0000ED929463846FFF795FF044650B13146E2
:102ED0002A46FFF79BFB31463846FFF745FF01E0E6
:102EE0003046F8BD2046F8BD38B5064C00230546EF
:102EF00008462360FEF74AFA431C02D1236803B157
:102F00002B6038BD802E012051F8040C0028BEBF74
:102F1000091851F8043CC018043870472E2E2F733E
:102F2000797374656D2F7372632F73746D333266AA
:102F3000372D68616C2F73746D3332663778785F24
:102F400068616C5F636F727465782E6300000000C7
:102F50002E2E2F73797374656D2F7372632F7374B4
:102F60006D333266372D68616C2F73746D33326642
:102F70003778785F68616C5F6770696F2E630000F7
:102F8000000000000102030401020304060708090F
:102F90002E2E2F73797374656D2F7372632F737474
:102FA0006D333266372D68616C2F73746D33326602
:102FB0003778785F68616C5F7263632E630000002E
:102FC00061626F727428292C2065786974696E6754
:102FD0002E2E2E002C2066756E6374696F6E3A205B
:102FE00000000000617373657274696F6E202225A2
:102FF0007322206661696C65643A2066696C65209D
:10300000222573222C206C696E652025642573258A
:10301000730A00006173736572745F706172616D31
:103020002829206661696C65643A2066696C6520B0
:10303000222573222C206C696E652025640A00000D
:103040006D61696E28617267633D25642C20617231
:1030500067763D5B000000002C20000022257322D3
:10306000000000005D293B0A00000000537461630A
:103070006B206672616D653A0A00000020523020B4
:103080003D2020253038580A000000002052312011
:103090003D2020253038580A000000002052322000
:1030A0003D2020253038580A0000000020523320EF
:1030B0003D2020253038580A0000000020523132CF
:1030C000203D20253038580A00000000204C5220B6
:1030D0003D2020253038580A0000000020504320B1
:1030E0003D2020253038580A00000000205053525F
:1030F000203D20253038580A000000004653522F4A
:103100004641523A0A0000002043465352203D20D7
:1031100020253038580A00002048465352203D20D0
:1031200020253038580A00002044465352203D20C4
:1031300020253038580A00002041465352203D20B7
:1031400020253038580A0000204D4D464152203D80
:1031500020253038580A00002042464152203D20A8
:1031600020253038580A00004D6973630A000000BA
:10317000204C522F4558435F52455455524E3D20E6
:10318000253038580A0000005B486172644661755A
:103190006C745D0A000000005B4275734661756CDB
:1031A000745D0A005B55736167654661756C745D9B
:1031B0000A000000000000000000000001020304FB
:1031C00006070809746573740000000049444C4503
:1031D0000000000009256309257509257509257575
:1031E0000D0A00004300232D302B2000686C4C009A
:1031F00065666745464700303132333435363738F7
:103200003941424344454600303132333435363754
:09321000383961626364656600EF
:10321C00785634128C000020000000000024F400CA
:10322C00AAAAAAAA000000000000000000000000EA
:10323C000000000000000000000000000000000082
:10324C0000000000E4310008000000000000000055
:10325C000000000000000000000000000000000062
:10326C000000000000000000000000000000000052
:10327C000000000000000000000000000000000042
:0C328C000000000014000020325476986E
:04000005080001C925
:00000001FF
