:020000040800F2
:1000000000000520F90200080103000805030008AC
:10001000790300087D030008C50300080000000004
:100020000000000000000000000000000D040008B7
:10003000110400080000000015040008190400085D
:1000400029040008290400082904000829040008DC
:1000500029040008290400082904000829040008CC
:1000600029040008290400082904000829040008BC
:1000700029040008290400082904000829040008AC
:10008000290400082904000829040008290400089C
:10009000290400082904000829040008290400088C
:1000A000290400082904000829040008290400087C
:1000B000290400082904000829040008290400086C
:1000C000290400082904000829040008290400085C
:1000D000290400082904000829040008290400084C
:1000E000290400082904000829040008290400083C
:1000F000290400082904000829040008290400082C
:10010000290400082904000829040008290400081B
:10011000290400082904000829040008290400080B
:1001200029040008290400082904000829040008FB
:1001300029040008290400082904000829040008EB
:1001400029040008290400082904000829040008DB
:1001500029040008290400082904000829040008CB
:1001600029040008290400082904000829040008BB
:1001700029040008290400082904000800000000E0
:10018000290400082904000829040008290400089B
:10019000290400082904000829040008290400088B
:1001A000290400082904000829040008290400087B
:1001B000290400082904000829040008290400086B
:1001C000290400082904000800B583B000F0AEFF40
:1001D000384B394A1360394A136039490CE00A68D0
:1001E0004B6801F10C04886803E01168196004335E
:1001F00004329842F9D82146324B9942EFD32E4B24
:100200001A68314B9A4204D12C4B1A682F4B9A42F0
:1002100000D0FEE7274B2E4A13602E4A13602E4B68
:100220000AE0194651F8082B5B6802E000201060D4
:1002300004329A42FAD30B46284A9342F1D3244B14
:100240001B6813B9234B1B6803B1FEE701F0C2F82A
:10025000694601A800F0FAFE214C224B1C1BA41099
:10026000002504E01E4B53F8253098470135AC4279
:10027000F8DC1D4C1D4B1C1BA410002504E01A4B80
:1002800053F8253098470135AC42F8DC00990198C5
:1002900001F0E2F80546164C164B1C1BA41004E0B6
:1002A000013C134B53F824309847002CF8DC2846C7
:1002B00000F09EFEBABADECA0000002074000020E2
:1002C0002C040008440400087856341232547698FE
:1002D00078000020140100204404000854040008A1
:1002E000540400085404000854040008540400088E
:1002F000540400085404000808B5FFF765FF00BF68
:1003000000BEFEE71EF0040F0CBFEFF30880EFF312
:1003100009807146414A10472DE9F04182B00446F8
:100320008846134B5E6B9F6B9D6A1B6B13F0020F2D
:100330000DD00F4BDB6A002B09DA4BF6AB6100F0F6
:1003400079FF20B14FF00042094BDA620CE0094816
:1003500000F08EFECDF800803B463246294620460E
:1003600000F0F0FE00BEFEE702B0BDE8F08100BF85
:1003700000ED00E0AC1F000800BEFEE71EF0040F19
:100380000CBFEFF30880EFF309807146244A104751
:100390002DE9F04182B004468846084B5E6B9F6BA6
:1003A0009D6A074800F064FECDF800803B46324667
:1003B0002946204600F0C6FE00BEFEE700ED00E044
:1003C000BC1F00081EF0040F0CBFEFF30880EFF312
:1003D00009807146134A10472DE9F04182B0044666
:1003E0008846084B5E6B9F6B9D6A074800F040FE95
:1003F000CDF800803B4632462946204600F0A2FE5A
:1004000000BEFEE700ED00E0C81F000800BEFEE7EA
:1004100000BEFEE700BEFEE77047000019030008BB
:0C04200091030008D903000800BEFEE7AD
:10042C002020000800000020780000202020000878
:10043C0000000010000000107800002018010020BF
:08044C00000000100000001088
:1004600010B5044600F0AAFD064BA3FB003080093E
:1004700000F080F8002221464FF0FF3000F03AF8FB
:10048000002010BDD34D621008B5074A136843F42D
:1004900000731360032000F00FF80F20FFF7E0FF58
:1004A00000F0DCFF002008BD003C0240014B186852
:1004B000704700BF7C00002010B50446C31E042B0B
:1004C00003D9A421084800F0C9FD084AD36823F4E1
:1004D000E0631B041B0C240204F4E0641C43044B83
:1004E0002343D36010BD00BF701D000800ED00E085
:1004F0000000FA0570B504460E4615460F2A03D9CA
:10050000BC21184800F0AAFD0F2E03D9BD211548C3
:1005100000F0A4FD144BDA68C2F30222C2F1070115
:10052000042928BF0421131D062B01D9033A00E03A
:100530000022012303FA01F101393140914003FA0D
:1005400002F2013A2A400A43002C06DA04F00F04B2
:100550001201D2B2054B1A5570BD1201D2B2044B32
:100560001A5570BD701D000800ED00E014ED00E0AC
:1005700000E400E00138B0F1807F0AD2064B5860F9
:10058000F021064A82F823100020986007221A60A2
:1005900070470120704700BF10E000E000ED00E070
:1005A00010B50446042818BF002804D040F2B31147
:1005B000084800F053FD042C05D1074A136843F0A6
:1005C0000403136010BD044A136823F0040313608E
:1005D00010BD00BF701D000810E000E010B582B033
:1005E0001C4B1A6C42F080521A641B6C03F080534F
:1005F0000193019B184A136843F480331360FFF79B
:1006000055FF044605E0FFF751FF001BB0F57A7F68
:100610001AD8114B5B6813F4803FF4D00E4A13686C
:1006200043F400331360FFF741FF044605E0FFF792
:100630003DFF001BB0F57A7F08D8074B5B6813F4C9
:10064000003FF4D0002002E0032000E0032002B0CD
:1006500010BD00BF003802400070004030B583B0CC
:10066000044603680F2B04D94FF480719D4800F0B5
:10067000F5FC236813F0010F00F094806368002BF1
:1006800018BFB3F5803F07D0B3F5A02F04D04FF4C7
:100690008371944800F0E2FC934B9B6803F00C03D9
:1006A000042B0AD0904B9B6803F00C03082B0DD150
:1006B0008D4B5B6813F4800F08D08B4B1B6813F4D1
:1006C000003F6FD06368002B6CD15BE2864B1A68E9
:1006D00022F480321A601A6822F480221A601A68A2
:1006E00022F480321A60FFF7E1FE054607E0FFF7CB
:1006F000DDFE401B41F28833984200F245827A4B7E
:100700001B6813F4003FF2D1774A136823F4803357
:1007100013606368B3F5803F09D11346126822F471
:1007200080221A601A6842F480321A6015E0B3F52C
:10073000A02F09D16C4B1A6842F480221A601A6803
:1007400042F480321A6008E0674B1A6822F4802273
:100750001A601A6822F480321A6063688BB1FFF75E
:10076000A5FE054607E0FFF7A1FE401B41F28833D6
:10077000984200F20B825C4B1B6813F4003FF2D0EE
:1007800010E0FFF793FE054607E0FFF78FFE401BE2
:1007900041F28833984200F2FB81534B1B6813F4FB
:1007A000003FF2D1236813F0020F6ED0E368012BF3
:1007B00004D940F247114B4800F050FC23691F2B2D
:1007C00004D94FF4A471474800F048FC464B9B689D
:1007D00013F00C0F0AD0444B9B6803F00C03082B5A
:1007E0001BD1414B5B6813F4800F16D13E4B1B6845
:1007F00013F0020F03D0E368012B40F0CB813A489D
:10080000036823F0F8012369F82292FAA2F2B2FAFF
:1008100082F293400B43036037E0E3680BB3324A44
:10082000136843F001031360FFF740FE054605E03F
:10083000FFF73CFE401B642800F2AE812A4B1B6888
:1008400013F0020FF4D02848036823F0F80123695D
:10085000F82292FAA2F2B2FA82F293400B430360BA
:1008600013E0214A136823F001031360FFF71EFE13
:10087000054605E0FFF71AFE401B642800F28E8152
:10088000194B1B6813F0020FF4D1236813F0080F03
:1008900037D06369012B04D94FF4C471114800F0BB
:1008A000DDFB6369A3B1104A536F43F00103536743
:1008B000FFF7FCFD054605E0FFF7F8FD401B642847
:1008C00000F26E81084B5B6F13F0020FF4D018E05A
:1008D000054A536F23F001035367FFF7E7FD054611
:1008E0000AE000BFB41D000800380240FFF7DEFD3B
:1008F000401B642800F25681B54B5B6F13F0020F6A
:10090000F4D1236813F0040F00F09280A368052B44
:1009100018BF012B04D94FF4D971AE4800F09EFBEB
:10092000AB4B1A6C42F080521A641B6C03F080537C
:100930000193019BA84A136843F480731360FFF787
:10094000B5FD054605E0FFF7B1FD401B642800F248
:100950002B81A14B1B6813F4807FF4D09C4B1A6F42
:1009600022F001021A671A6F22F004021A671A6F46
:1009700022F001021A67FFF799FD054607E0FFF72D
:1009800095FD401B41F28833984200F20F81904B55
:100990001B6F13F0020FF2D18D4A136F23F0010386
:1009A0001367A368012B09D11346126F22F00402CA
:1009B0001A671A6F42F001021A6714E0052B09D179
:1009C000834B1A6F42F004021A671A6F42F0010259
:1009D0001A6708E07E4B1A6F22F004021A671A6F3A
:1009E00022F001021A67A3688BB1FFF75FFD05468D
:1009F00007E0FFF75BFD401B41F28833984200F2AD
:100A0000D780734B1B6F13F0020FF2D010E0FFF78B
:100A10004DFD054607E0FFF749FD401B41F28833D5
:100A2000984200F2C7806A4B1B6F13F0020FF2D19D
:100A3000A369022B04D94FF4FB71664800F00EFB4A
:100A4000A369002B00F0B880614A926802F00C02A2
:100A5000082A00F0B380022B7FD1E369002B18BF76
:100A6000B3F5800F04D040F2FF115A4800F0F6FAB7
:100A7000236A023B3D2B04D94FF40071554800F026
:100A8000EDFA636AC03BF02B04D940F201215148D2
:100A900000F0E4FAA36A022B18BF042B08D0062B3F
:100AA00006D0082B04D040F202214A4800F0D6FAC2
:100AB000E36A023B0D2B04D940F20321454800F0C4
:100AC000CDFA434A136823F080731360FFF7EEFCFE
:100AD000054604E0FFF7EAFC401B642870D83C4B55
:100AE0001B6813F0007FF5D1216A636A47F6C07274
:100AF00092FAA2F2B2FA82F293401943A36A5B0817
:100B00005A1E4FF4403393FAA3F3B3FA83F302FA75
:100B100003F30B43E2691343E26A4FF0706191FA09
:100B2000A1F1B1FA81F18A40134343F00053284AFE
:100B30005360136843F080731360FFF7B7FC0446FB
:100B400004E0FFF7B3FC001B64283BD8204B1B6874
:100B500013F0007FF5D0002037E01D4A136823F022
:100B600080731360FFF7A2FC044604E0FFF79EFCCD
:100B7000001B642828D8164B1B6813F0007FF5D1A2
:100B8000002022E0012020E003201EE003201CE0E2
:100B900003201AE0012018E0032016E0032014E0EF
:100BA000032012E0032010E003200EE003200CE0FD
:100BB00003200AE0032008E0002006E0012004E012
:100BC000032002E0032000E0032003B030BD00BF9B
:100BD00000380240B41D00080070004070B50446A3
:100BE0000D460368013B0E2B04D940F2622189486F
:100BF00000F034FA0F2D04D940F26321854800F04B
:100C00002DFA854B1B6803F00F039D4240F28F8045
:100C1000814A136823F00F032B431360136803F01A
:100C20000F039D4240F05781236813F0020F1ED03E
:100C3000A368002B18BF802B12D0902B10D0A02BB4
:100C40000ED0B02B0CD0C02B0AD0D02B08D0E02B6C
:100C500006D0F02B04D040F279216E4800F0FEF966
:100C60006E498B6823F0F002A36813438B602368FE
:100C700013F0010F00F0EB806368022B04D94FF4EE
:100C80002071644800F0EAF96268012A05D1634BDB
:100C90001B6813F4003F0ED11FE1022A05D15F4B00
:100CA0001B6813F0007F06D119E15C4B1B6813F041
:100CB000020F00F0168159498B6823F00303134398
:100CC0008B60FFF7F3FB05466368012B0FD107E04C
:100CD000FFF7ECFB401B41F28833984200F203819E
:100CE0004E4B9B6803F00C03042BF1D1AFE0022BB9
:100CF00017D107E0FFF7DAFB401B41F28833984237
:100D000000F2F380454B9B6803F00C03082BF1D1F4
:100D10009DE0FFF7CBFB401B41F28833984200F285
:100D2000E6803E4B9B6813F00C0FF2D18FE02368F6
:100D300013F0020F1ED0A368002B18BF802B12D017
:100D4000902B10D0A02B0ED0B02B0CD0C02B0AD0E3
:100D5000D02B08D0E02B06D0F02B04D04FF432710A
:100D60002C4800F07BF92D498B6823F0F002A36832
:100D700013438B60236813F0010F5DD06368022B6F
:100D800004D940F2CF21234800F068F96268012AB3
:100D900005D1224B1B6813F4003F0ED1A9E0022AB3
:100DA00005D11E4B1B6813F0007F06D1A3E01B4B3F
:100DB0001B6813F0020F00F0A08018498B6823F025
:100DC000030313438B60FFF771FB06466368012B37
:100DD0000FD107E0FFF76AFB801B41F2883398428E
:100DE00000F28D800D4B9B6803F00C03042BF1D1B6
:100DF00022E0022B1BD106E0FFF758FB801B41F2DB
:100E0000883398427DD8054B9B6803F00C03082B70
:100E1000F2D111E0B41D0008003C0240003802404D
:100E2000FFF744FB801B41F2883398426BD8384B64
:100E30009B6813F00C0FF3D1364A136823F00F03AD
:100E40002B431360136803F00F039D425DD12368A9
:100E500013F0040F1AD0E368002B18BFB3F5805FBE
:100E60000DD0B3F5A05F0AD0B3F5C05F07D0B3F5DE
:100E7000E05F04D040F21E31274800F0EFF824492B
:100E80008B6823F4E052E36813438B60236813F00C
:100E9000080F1BD02369002B18BFB3F5805F0DD05E
:100EA000B3F5A05F0AD0B3F5C05F07D0B3F5E05F3C
:100EB00004D040F22531184800F0D0F8144A936865
:100EC00023F46043216943EAC10393600F20FFF7D5
:100ED000C7FA002070BD012070BD012070BD012047
:100EE00070BD012070BD032070BD032070BD0320C4
:100EF00070BD012070BD012070BD012070BD0320B8
:100F000070BD032070BD032070BD012070BD00BF07
:100F100000380240003C0240B41D0008244B9B688E
:100F200003F00C03042B3FD0082B01D0214870475D
:100F300010B41F4B586800F03F005B6813F4800F3B
:100F400010D01D4BB3FBF0F0194B5A6847F6C07137
:100F50000A4091FAA1F3B3FA83F322FA03F303FBF5
:100F600000F310E0134BB3FBF0F0114B5A6847F657
:100F7000C07402EA040194FAA4F2B2FA82F221FAED
:100F800002F202FB00F30A4A506800F440324FF4C8
:100F9000403090FAA0F0B0FA80F022FA00F0013070
:100FA0004000B3FBF0F001E00348704710BC70470D
:100FB000003802400024F40040787D0108B5FFF7B6
:100FC000ADFF084B9B6803F0F002F02393FAA3F304
:100FD000B3FA83F322FA03F3034AD35CD840034BFA
:100FE000186008BD00380240A41D00080C00002055
:100FF000FEE700BF08B5034800F052F80120FFF7F4
:10100000F7FF00BFE41D000808B50D4B1B6813B9BE
:101010000C4A0B4B1A600A4B1A68C31C23F00303DB
:10102000134409498B4206D900F01AFA0C230360D5
:101030004FF0FF3008BD02490B60104608BD00BFED
:10104000800000201801002000FC04200123036020
:10105000014B0B60704700BF0400002008B50A4632
:101060000146024800F004F8FFF7C4FF381E0008EC
:101070000FB400B583B004AB53F8042B0193802167
:10108000064800F027FA002803DD0146034800F077
:1010900049F803B05DF804EB04B070478800002005
:1010A00010B5044600F0E2F90146204600F03AF897
:1010B0000121024800F036F810BD00BF281F0008CB
:1010C0002DE9F04385B004460F46435C13BB04256D
:1010D00028462146ABBE04461FE03546102E28BFE9
:1010E0001025002306E014F8011B04AA1A4402F894
:1010F000101C0133AB42F6D304AA1344002203F8B8
:10110000102CE9464FF0040840464946ABBE8046E5
:10111000761B00E00E46002EDFD1384605B0BDE854
:10112000F08300BF08B5FFF7CBFF08BD08B500F09E
:1011300091F8024B024A9A6008BD00BF00ED00E042
:1011400000000008F8B504460D4617461E4626481E
:10115000FFF78EFF21682548FFF78AFF6168244862
:10116000FFF786FFA1682348FFF782FFE168224866
:10117000FFF77EFF21692148FFF77AFF6169204868
:10118000FFF776FFA1691F48FFF772FFE1691E486C
:10119000FFF76EFF1D48FFF76BFF29461C48FFF75E
:1011A00067FF1C4CE16A1C48FFF762FF216B1B487C
:1011B000FFF75EFFE16B1A48FFF75AFF15F0800F4B
:1011C00003D039461748FFF753FF15F4004F03D0FB
:1011D00031461548FFF74CFF1448FFF749FF0699C1
:1011E0001348FFF745FFF8BD901E0008A01E000839
:1011F000B01E0008C01E0008D01E0008E01E000837
:10120000F01E0008001F0008101F0008201F000823
:101210002C1F000800ED00E03C1F00084C1F0008D8
:101220005C1F00086C1F00087C1F00088C1F000852
:10123000941F000883691A888A4207D10268033A1A
:10124000012A05D8023383610120704700207047CE
:10125000002070470B4B1A6842F001021A6000210F
:1012600099601868084A02401A60084A5A601A6869
:1012700022F480221A60D9604FF00062044B9A6019
:10128000704700BF00380240FFFFF6FE1030002418
:1012900000ED00E0224B9B6803F00C03042B07D009
:1012A000082B09D0002B2DD11E4A1F4B1A602CE0B1
:1012B0001E4A1D4B1A6028E0194B5A685B6803F000
:1012C0003F0312F4800F09D0184AB2FBF3F2144B1B
:1012D0005B68C3F3881303FB02F208E0114AB2FB18
:1012E000F3F30F4A5168C1F3881101FB03F20C4B71
:1012F0005B68C3F3014301335B00B2FBF3F30A4ABB
:10130000136002E0074A084B1A60054B9B68C3F361
:101310000313074AD15C044A1368CB40136070473B
:10132000003802400024F4000C00002040787D01C9
:10133000D81F000810B594B0234B1A6C42F08052AD
:101340001A641B6C03F080530193019B1F4B1A68B6
:1013500042F440421A601B6803F440430293029B2C
:10136000012308934FF4803309934FF480030F93C4
:10137000192310934FF4C07311930224129408237D
:1013800013930E9408A8FFF769F9FFF727F90F23C5
:1013900003930494002305934FF4A05306934FF452
:1013A00080530793062103A8FFF718FCFFF706FEFA
:1013B000074BA3FB00308009FFF7DCF80420FFF7A0
:1013C000EFF814B010BD00BF0038024000700040BC
:1013D000D34D621010B5BFF34F8FBFF36F8F1D4B0E
:1013E0000021C3F850125A6942F400325A61BFF327
:1013F0004F8FBFF36F8FC3F88410BFF34F8FD3F8B5
:101400008040C4F34E3000E01846C4F3C90200E047
:101410001A4643F6E07303EA401343EA82730D4928
:10142000C1F86032531E002AF2D1431E0028EBD1CE
:10143000BFF34F8F4B6943F480334B61BFF34F8F42
:10144000BFF36F8FFFF720F8FFF774FFFFF722FF5E
:1014500010BD00BF00ED00E0FEE700BF704700BF19
:10146000014B1868704700BF70000020034613F856
:10147000012B002AFBD1181A0138704730B5141E11
:1014800005469BB0184604DA8B232B604FF0FF30E3
:101490001DE04FF40273ADF80C3014BF04F1FF33BC
:1014A0002346029305934FF6FF7300910491ADF824
:1014B0000E3002461E9B6946284600F073F8431C16
:1014C000BCBF8B232B6014B1009B00221A701BB091
:1014D00030BD000007B5009313460A460146034895
:1014E0000068FFF7CBFF03B05DF804FB700000203D
:1014F0002DE9F0478E689E4282460C4691469846FA
:101500003ED88A8912F4906F3AD0256809696F1A1B
:101510006569022305EB450595FBF3F57B1C434408
:101520009D4238BF1D4653050FD5294600F08CFB60
:10153000064698B13A46216900F01AFBA38923F4C4
:10154000906343F08003A38113E02A4600F0D0FBB0
:10155000064670B92169504600F030FB0C23CAF8EA
:101560000030A38943F04003A3814FF0FF30BDE872
:10157000F087266165613E44ED1B2660A560464606
:10158000464528BF464632464946206800F0FBFAE9
:10159000A3689B1BA36023681E4426600020BDE84F
:1015A000F08700002DE9F04F9DB0804603938B89B2
:1015B0001C060D4616460DD50B695BB9402100F09F
:1015C00043FB2860286118B90C23C8F80030CDE02F
:1015D00040236B610023099320238DF82930DFF825
:1015E0009CB130238DF82A3037463C4614F8013B35
:1015F0001BB9B7EB060910D003E0252BF9D027461D
:10160000F3E74B46324629464046FFF771FF01306B
:1016100000F0A780099B4B4409933B78002B00F016
:10162000A08000234FF0FF320493079305920693A6
:101630008DF853301A930126052221784E4800F088
:1016400047FA671C049B38B14B4A801A06FA00F02F
:10165000184304903C46EFE7D90644BF20228DF89A
:1016600053201A0744BF2B228DF8532022782A2AB0
:1016700003D0079A00210A200BE0039A111D12687B
:101680000391002A10DA524243F0020007920490BC
:101690000BE0274601343B78303B092B03D800FB95
:1016A00002320121F5E701B107923B782E2B1ED1C2
:1016B0007B782A2B0AD1039B1A1D1B680392002BEF
:1016C000B8BF4FF0FF330237059310E000230593B6
:1016D000781C19460A24074601303A78303A092A1C
:1016E00003D804FB01210123F5E703B1059103228F
:1016F0003978224800F0ECF940B14023CBEB0000F0
:1017000003FA00F0049B18430490013739781C4811
:101710008DF8281006227E1C00F0DAF988B1194BEA
:1017200033B9039B073323F007030833039314E013
:1017300003AB00932A46144B04A94046AFF3008044
:1017400007E003AB00932A460F4B04A9404600F084
:1017500093F8B0F1FF3F824603D0099B53440993AD
:1017600042E7AB895B0601D4099801E04FF0FF30F6
:101770001DB0BDE8F08F00BFEA1F0008F01F000891
:10178000F41F000800000000F11400082DE9F047E4
:1017900091461F460A698B68DDF820809342B8BFE6
:1017A0001346C9F8003091F8432006460C4612B1A2
:1017B0000133C9F800302368990642BFD9F80030D8
:1017C0000233C9F80030256815F0060510D104F180
:1017D000190A07E00123524639463046C047013016
:1017E0001AD00135E368D9F800209B1A9D42F1DB3D
:1017F00094F843302268003318BF012392060FD5B6
:10180000E1185A1C302081F84300224494F8451016
:1018100082F84310023303E04FF0FF30BDE8F08759
:1018200004F1430239463046C0470130F4D0226803
:10183000D9F80050E36802F00602042A08BF5D1BD5
:101840002269A3680CBF25EAE57500259342C4BF51
:101850009B1AED184FF000091A344D4509D00123A9
:10186000224639463046C0470130D5D009F101093A
:10187000F3E70020BDE8F0872DE9F04317460A7E24
:1018800085B06E2A984606460C460C9B01F1430E25
:1018900000F0AE8011D8632A22D009D8002A00F0C7
:1018A000BB80582A40F0CA8081F84520834955E022
:1018B000642A1ED0692A1CD0C0E0732A00F0B080D0
:1018C00009D86F2A2ED0702A40F0B8800A6842F0FA
:1018D00020020A603EE0752A24D0782A3AD0ADE092
:1018E0001A6801F14205111D1960136884F842302D
:1018F000A8E021681A6811F0800F02D0111D19604C
:1019000008E011F0400F02F10401196002D0B2F9B1
:10191000003000E01368002B3CDA2D225B4284F893
:10192000432037E021681A6811F0800F02D0111DA2
:10193000196007E011F0400F02F10401196001D0B5
:10194000138800E01368227E5C496F2A14BF0A22C4
:1019500008221BE078225A4984F84520226818683A
:1019600012F0800F00F104051D6003D1550601D56A
:10197000038800E00368D00744BF42F020022260E1
:101980001BB9226822F0200222601022002084F875
:10199000430001E049490A226568A560002D08DB83
:1019A000206820F0040020602BB9002D7DD1754601
:1019B0000CE0002B79D07546B3FBF2F002FB10333C
:1019C000CB5C05F8013D03460028F5D1082A0BD170
:1019D0002368DA0708D5236962689A42DEBF30239C
:1019E00005F8013C05F1FF35C5EB0E0323612EE040
:1019F00008681A68496910F0800F03D0101D18603C
:101A0000136808E010F0400F02F10400186013683A
:101A100001D0198000E0196000232361754616E0AB
:101A20001A68111D1960156862680021284600F0C7
:101A30004FF808B1401B6060636804E004F14205A0
:101A400084F8422001232361002384F84330CDF839
:101A500000803B4603AA21463046FFF797FE01303F
:101A600002D14FF0FF3026E023692A46394630463E
:101A7000C0470130F5D023689B0710D5002504F13D
:101A8000190907E001234A4639463046C04701306C
:101A9000E7D00135E368039A9B1A9D42F2DBE068C8
:101AA000039B9842B8BF184605E00B7884F8423093
:101AB00004F142058AE705B0BDE8F083FB1F00088A
:101AC0000C200008000000000000000000000000E2
:101AD00001F0FF01102A2BDB10F0070F08D010F8DF
:101AE000013B013A8B422DD010F0070F42B3F6D1E3
:101AF000F0B441EA012141EA014122F007047FF0FC
:101B000000070023F0E80256083C85EA010586EA52
:101B1000010685FA47F5A3FA87F586FA47F6A5FA8E
:101B200087F68EB9EED1F0BC01F0FF0102F007029A
:101B300032B110F8013B013A83EA010313B1F8D145
:101B40000020704701387047002D06BF3546033826
:101B5000073815F0010F07D1013015F4807F02BF5F
:101B6000013015F4C03F0130F0BC0138704700BFB0
:101B700010B5431E0A44914204D011F8014B03F8FA
:101B8000014FF8E710BD884210B501EB020301D800
:101B9000421E0BE09842FBD28118D21AD34204D0E5
:101BA00013F8014D01F8014DF8E710BD994204D03A
:101BB00011F8014B02F8014FF8E710BD30B50029CC
:101BC0003ED051F8042C0B1F1E49002AB8BF9B18A9
:101BD0000A680C4612B95A600B6030BD9A420ED9A1
:101BE00019685818824204BF106852685A6004BFCE
:101BF00009181960236030BD994203D80A4651681C
:101C00000029F9D1146815199D420AD11B68234493
:101C1000D0188142136013D10868034413604B68E5
:101C20000DE002D90C23036030BD18681C18A142D6
:101C300004BF0C684968596004BF001918605360FC
:101C400030BD00BF0C01002070B5CD1C25F0030590
:101C500008350C2D38BF0C25002D064603DA0C2361
:101C60003360002070BDA942F9D81F4B1C681A468A
:101C70002146A1B10B685B1B0ED40B2B03D90B6063
:101C8000CC18CD501EE08C420DBF63684B6863607A
:101C9000136018BF0C4615E00C464968E9E7134C81
:101CA00023681BB9304600F049F8206029463046C9
:101CB00000F044F8431CD2D0C41C24F00304A0421A
:101CC0000AD1256004F10B00231D20F00700C31A80
:101CD00009D05A42E25070BD211A304600F02EF869
:101CE0000130EED1BBE770BD0C01002008010020DF
:101CF000F8B5074615460E4621B91146BDE8F8402D
:101D0000FFF7A2BF1AB9FFF759FF2846F8BD00F048
:101D100025F885420ED929463846FFF795FF044637
:101D200050B131462A46FFF723FF31463846FFF7C8
:101D300045FF01E03046F8BD2046F8BD38B5064CF9
:101D40000023054608462360FFF75EF9431C02D1D5
:101D5000236803B12B6038BD1001002051F8040C3A
:101D60000028BEBF091851F8043CC0180438704759
:101D70002E2E2F73797374656D2F7372632F7374A6
:101D80006D333266372D68616C2F73746D33326634
:101D90003778785F68616C5F636F727465782E6303
:101DA000000000000000000001020304010203041F
:101DB000060708092E2E2F73797374656D2F7372C1
:101DC000632F73746D333266372D68616C2F7374B3
:101DD0006D3332663778785F68616C5F7263632E4B
:101DE0006300000061626F727428292C2065786995
:101DF00074696E672E2E2E002C2066756E637469D2
:101E00006F6E3A2000000000617373657274696F31
:101E10006E2022257322206661696C65643A206613
:101E2000696C6520222573222C206C696E65202543
:101E300064257325730A00006173736572745F70A3
:101E40006172616D2829206661696C65643A20665B
:101E5000696C6520222573222C206C696E65202513
:101E6000640A00006D61696E28617267633D2564D4
:101E70002C20617267763D5B000000002C20000082
:101E800022257322000000005D293B0A00000000AB
:101E9000537461636B206672616D653A0A000000DD
:101EA000205230203D2020253038580A0000000004
:101EB000205231203D2020253038580A00000000F3
:101EC000205232203D2020253038580A00000000E2
:101ED000205233203D2020253038580A00000000D1
:101EE00020523132203D20253038580A00000000B1
:101EF000204C52203D2020253038580A0000000098
:101F0000205043203D2020253038580A0000000092
:101F100020505352203D20253038580A0000000040
:101F20004653522F4641523A0A000000204346537E
:101F300052203D2020253038580A000020484653C2
:101F400052203D2020253038580A000020444653B6
:101F500052203D2020253038580A000020414653A9
:101F600052203D2020253038580A0000204D4D4693
:101F70004152203D20253038580A00002042464179
:101F800052203D2020253038580A00004D697363E7
:101F90000A000000204C522F4558435F52455455CB
:101FA000524E3D20253038580A0000005B486172CF
:101FB000644661756C745D0A000000005B427573D5
:101FC0004661756C745D0A005B55736167654661B7
:101FD000756C745D0A000000000000000000000045
:101FE00001020304060708094300232D302B2000BB
:101FF000686C4C00656667454647003031323334C3
:102000003536373839414243444546003031323362
:0D2010003435363738396162636465660027
:102020007856341284000020000000000024F400E0
:1020300000000000000000000000000000000000A0
:102040000000000000000000000000000000000090
:10205000E81F000800000000000000000000000071
:102060000000000000000000000000000000000070
:102070000000000000000000000000000000000060
:102080000000000000000000000000000000000050
:08209000100000203254769884
:04000005080001C925
:00000001FF
